{
  "contractName": "cITCrowdsale",
  "abi": [
    {
      "constant": true,
      "inputs": [],
      "name": "hasClosed",
      "outputs": [
        {
          "name": "",
          "type": "bool"
        }
      ],
      "payable": false,
      "stateMutability": "view",
      "type": "function"
    },
    {
      "constant": true,
      "inputs": [],
      "name": "rate",
      "outputs": [
        {
          "name": "",
          "type": "uint256"
        }
      ],
      "payable": false,
      "stateMutability": "view",
      "type": "function"
    },
    {
      "constant": true,
      "inputs": [],
      "name": "cap",
      "outputs": [
        {
          "name": "",
          "type": "uint256"
        }
      ],
      "payable": false,
      "stateMutability": "view",
      "type": "function"
    },
    {
      "constant": true,
      "inputs": [],
      "name": "weiRaised",
      "outputs": [
        {
          "name": "",
          "type": "uint256"
        }
      ],
      "payable": false,
      "stateMutability": "view",
      "type": "function"
    },
    {
      "constant": true,
      "inputs": [],
      "name": "closingTime",
      "outputs": [
        {
          "name": "",
          "type": "uint256"
        }
      ],
      "payable": false,
      "stateMutability": "view",
      "type": "function"
    },
    {
      "constant": true,
      "inputs": [],
      "name": "capReached",
      "outputs": [
        {
          "name": "",
          "type": "bool"
        }
      ],
      "payable": false,
      "stateMutability": "view",
      "type": "function"
    },
    {
      "constant": true,
      "inputs": [],
      "name": "wallet",
      "outputs": [
        {
          "name": "",
          "type": "address"
        }
      ],
      "payable": false,
      "stateMutability": "view",
      "type": "function"
    },
    {
      "constant": false,
      "inputs": [],
      "name": "renounceOwnership",
      "outputs": [],
      "payable": false,
      "stateMutability": "nonpayable",
      "type": "function"
    },
    {
      "constant": true,
      "inputs": [],
      "name": "isFinalized",
      "outputs": [
        {
          "name": "",
          "type": "bool"
        }
      ],
      "payable": false,
      "stateMutability": "view",
      "type": "function"
    },
    {
      "constant": true,
      "inputs": [],
      "name": "owner",
      "outputs": [
        {
          "name": "",
          "type": "address"
        }
      ],
      "payable": false,
      "stateMutability": "view",
      "type": "function"
    },
    {
      "constant": true,
      "inputs": [],
      "name": "openingTime",
      "outputs": [
        {
          "name": "",
          "type": "uint256"
        }
      ],
      "payable": false,
      "stateMutability": "view",
      "type": "function"
    },
    {
      "constant": false,
      "inputs": [
        {
          "name": "_beneficiary",
          "type": "address"
        }
      ],
      "name": "buyTokens",
      "outputs": [],
      "payable": true,
      "stateMutability": "payable",
      "type": "function"
    },
    {
      "constant": false,
      "inputs": [
        {
          "name": "_newOwner",
          "type": "address"
        }
      ],
      "name": "transferOwnership",
      "outputs": [],
      "payable": false,
      "stateMutability": "nonpayable",
      "type": "function"
    },
    {
      "constant": true,
      "inputs": [],
      "name": "token",
      "outputs": [
        {
          "name": "",
          "type": "address"
        }
      ],
      "payable": false,
      "stateMutability": "view",
      "type": "function"
    },
    {
      "inputs": [
        {
          "name": "_rate",
          "type": "uint256"
        },
        {
          "name": "_wallet",
          "type": "address"
        },
        {
          "name": "_token",
          "type": "address"
        },
        {
          "name": "_openingTime",
          "type": "uint256"
        },
        {
          "name": "_closingTime",
          "type": "uint256"
        },
        {
          "name": "_cap",
          "type": "uint256"
        }
      ],
      "payable": false,
      "stateMutability": "nonpayable",
      "type": "constructor"
    },
    {
      "payable": true,
      "stateMutability": "payable",
      "type": "fallback"
    },
    {
      "anonymous": false,
      "inputs": [],
      "name": "Finalized",
      "type": "event"
    },
    {
      "anonymous": false,
      "inputs": [
        {
          "indexed": true,
          "name": "previousOwner",
          "type": "address"
        }
      ],
      "name": "OwnershipRenounced",
      "type": "event"
    },
    {
      "anonymous": false,
      "inputs": [
        {
          "indexed": true,
          "name": "previousOwner",
          "type": "address"
        },
        {
          "indexed": true,
          "name": "newOwner",
          "type": "address"
        }
      ],
      "name": "OwnershipTransferred",
      "type": "event"
    },
    {
      "anonymous": false,
      "inputs": [
        {
          "indexed": true,
          "name": "purchaser",
          "type": "address"
        },
        {
          "indexed": true,
          "name": "beneficiary",
          "type": "address"
        },
        {
          "indexed": false,
          "name": "value",
          "type": "uint256"
        },
        {
          "indexed": false,
          "name": "amount",
          "type": "uint256"
        }
      ],
      "name": "TokenPurchase",
      "type": "event"
    },
    {
      "constant": false,
      "inputs": [],
      "name": "finalize",
      "outputs": [],
      "payable": false,
      "stateMutability": "nonpayable",
      "type": "function"
    }
  ],
  "bytecode": "0x60806040526007805460a060020a60ff021916905534801561002057600080fd5b5060405160c0806108ea83398101604090815281516020830151918301516060840151608085015160a090950151929491929091908083838888886000831161006857600080fd5b600160a060020a038216151561007d57600080fd5b600160a060020a038116151561009257600080fd5b60029290925560018054600160a060020a03928316600160a060020a03199182161790915560008054929093169116179055428210156100d157600080fd5b818110156100de57600080fd5b600491909155600555600081116100f457600080fd5b600655505060078054600160a060020a03191633179055505050506107cc8061011e6000396000f3006080604052600436106100da5763ffffffff7c01000000000000000000000000000000000000000000000000000000006000350416631515bc2b81146100e55780632c4e722e1461010e578063355274ea146101355780634042b66f1461014a5780634b6753bc1461015f5780634bb278f3146101745780634f93594514610189578063521eb2731461019e578063715018a6146101cf5780638d4e4083146101e45780638da5cb5b146101f9578063b7a8807c1461020e578063ec8ac4d814610223578063f2fde38b14610237578063fc0c546a14610258575b6100e33361026d565b005b3480156100f157600080fd5b506100fa61030f565b604080519115158252519081900360200190f35b34801561011a57600080fd5b50610123610317565b60408051918252519081900360200190f35b34801561014157600080fd5b5061012361031d565b34801561015657600080fd5b50610123610323565b34801561016b57600080fd5b50610123610329565b34801561018057600080fd5b506100e361032f565b34801561019557600080fd5b506100fa6103e0565b3480156101aa57600080fd5b506101b36103eb565b60408051600160a060020a039092168252519081900360200190f35b3480156101db57600080fd5b506100e36103fa565b3480156101f057600080fd5b506100fa610468565b34801561020557600080fd5b506101b3610489565b34801561021a57600080fd5b50610123610498565b6100e3600160a060020a036004351661026d565b34801561024357600080fd5b506100e3600160a060020a036004351661049e565b34801561026457600080fd5b506101b36104c1565b34600061027a83836104d0565b610283826104ff565b600354909150610299908363ffffffff61051c16565b6003556102a68382610529565b60408051838152602081018390528151600160a060020a0386169233927f623b3804fa71d67900d064613da8f94b9617215ee90799290593e1745087ad18929081900390910190a36102f883836104fb565b610300610533565b61030a83836104fb565b505050565b600554421190565b60025481565b60065481565b60035481565b60055481565b60075474010000000000000000000000000000000000000000900460ff161561035757600080fd5b61035f61030f565b8061036d575061036d6103e0565b151561037857600080fd5b61038061056c565b6040517f6823b073d48d6e3a7d385eeb601452d680e74bb46afe3255a7d778f3a9b1768190600090a16007805474ff0000000000000000000000000000000000000000191674010000000000000000000000000000000000000000179055565b600654600354101590565b600154600160a060020a031681565b600754600160a060020a0316331461041157600080fd5b600754604051600160a060020a03909116907ff8df31144d9c2f0f6b59d69b8b98abd5459d07f2742c4df920b25aae33c6482090600090a26007805473ffffffffffffffffffffffffffffffffffffffff19169055565b60075474010000000000000000000000000000000000000000900460ff1681565b600754600160a060020a031681565b60045481565b600754600160a060020a031633146104b557600080fd5b6104be81610606565b50565b600054600160a060020a031681565b6104da8282610684565b6006546003546104f0908363ffffffff61051c16565b11156104fb57600080fd5b5050565b6000610516600254836106ad90919063ffffffff16565b92915050565b8181018281101561051657fe5b6104fb82826106d6565b600154604051600160a060020a03909116903480156108fc02916000818181858888f193505050501580156104be573d6000803e3d6000fd5b60008060009054906101000a9004600160a060020a0316905080600160a060020a0316637d64bcb46040518163ffffffff167c0100000000000000000000000000000000000000000000000000000000028152600401602060405180830381600087803b1580156105dc57600080fd5b505af11580156105f0573d6000803e3d6000fd5b505050506040513d602081101561030a57600080fd5b600160a060020a038116151561061b57600080fd5b600754604051600160a060020a038084169216907f8be0079c531659141344cd1fd0a4f28419497f9722a3daafe3b4186f6b6457e090600090a36007805473ffffffffffffffffffffffffffffffffffffffff1916600160a060020a0392909216919091179055565b600454421015801561069857506005544211155b15156106a357600080fd5b6104fb828261077f565b60008215156106be57506000610516565b508181028183828115156106ce57fe5b041461051657fe5b60008054604080517f40c10f19000000000000000000000000000000000000000000000000000000008152600160a060020a03868116600483015260248201869052915191909216926340c10f1992604480820193602093909283900390910190829087803b15801561074857600080fd5b505af115801561075c573d6000803e3d6000fd5b505050506040513d602081101561077257600080fd5b505115156104fb57600080fd5b600160a060020a038216151561079457600080fd5b8015156104fb57600080fd00a165627a7a723058209b74770832cc7e5a5ebd81afec852a9a5edb2f05a7fb4cf8c0a2fa684f01756c0029",
  "source": "pragma solidity 0.4.24;\nimport  \"openzeppelin-solidity/contracts/crowdsale/Crowdsale.sol\";\nimport  \"openzeppelin-solidity/contracts/token/ERC20/ERC20.sol\";\nimport  \"openzeppelin-solidity/contracts/crowdsale/validation/TimedCrowdsale.sol\";\nimport  \"openzeppelin-solidity/contracts/crowdsale/validation/CappedCrowdsale.sol\";\nimport  \"openzeppelin-solidity/contracts/crowdsale/emission/MintedCrowdsale.sol\";\n\ninterface MintableERC20 {\n    function finishMinting()  public returns (bool);\n\n    }\n\ncontract cITCrowdsale  is Crowdsale, TimedCrowdsale, CappedCrowdsale, MintedCrowdsale, Ownable {\n     bool public isFinalized = false;\n\n     event Finalized();\n    constructor \n    (\n     uint256 _rate,\n     address _wallet,\n     ERC20 _token,\n     uint256 _openingTime,\n     uint256 _closingTime,\n     uint256 _cap\n     )\nCrowdsale(_rate, _wallet, _token)\nTimedCrowdsale(_openingTime, _closingTime)\nCappedCrowdsale(_cap)\npublic\n{\n    \n}\n  /**\n   * @dev Must be called after crowdsale ends, to do some extra finalization\n   * work. Calls the contract's finalization function.\n   */\n  function finalize() public {\n    require(!isFinalized);\n    require(hasClosed() || capReached()) ;\n\n    finalization();\n    emit Finalized();\n\n    isFinalized = true;\n  }\n\n\nfunction finalization() internal {\n    MintableERC20 mintabelToken = MintableERC20(token);\n    mintabelToken.finishMinting();\n    \n    \n}\n\n}",
  "sourcePath": "/home/helleflo/ico/contracts/cITCrowdsale.sol",
  "compiler": {
    "name": "solc",
    "version": "0.4.24+commit.e67f0147.Emscripten.clang"
  },
  "schemaVersion": "2.0.1",
  "updatedAt": "2018-08-17T20:11:50.689Z"
}